:020000040800F2
:10000000000002205DBD000845AC00084BAC0008B4
:1000100055AC00085BAC000861AC000800000000B3
:10002000000000000000000000000000B16B0108AB
:1000300067AC000800000000016E010875AC000804
:10004000ADBD0008ADBD0008ADBD0008ADBD0008E8
:10005000ADBD0008ADBD0008ADBD0008ADBD0008D8
:10006000ADBD0008ADBD0008ADBD000891AC0008F5
:10007000ADBD0008ADBD0008ADBD0008ADBD0008B8
:10008000ADBD0008ADBD0008ADBD0008ADBD0008A8
:10009000ADBD0008ADBD0008ADBD0008ADBD000898
:1000A000A5AC0008C1AC0008ADBD0008ADBD00089E
:1000B000D5AC0008E9AC0008FDAC0008ADBD0008F7
:1000C000ADBD0008ADBD0008ADBD0008ADBD000868
:1000D000ADBD000811AD0008ADBD000825AD00089C
:1000E000ADBD0008ADBD0008ADBD000839AD0008CC
:1000F000ADBD0008ADBD0008ADBD000855AD0008A0
:10010000ADBD0008ADBD0008ADBD0008ADBD000827
:1001100069AD00087DAD0008ADBD0008ADBD0008AB
:10012000ADBD0008ADBD000891AD0008ADBD000833
:10013000ADBD0008A5AD0008ADBD0008ADBD00080F
:10014000ADBD0008ADBD0008ADBD0008ADBD0008E7
:10015000ADBD0008ADBD0008B9AD0008CDAD0008CB
:10016000ADBD0008ADBD0008ADBD0008ADBD0008C7
:10017000ADBD0008ADBD0008ADBD00080000000029
:08018000ADBD0008ADBD000893
:1001900010B5054C237833B9044B13B10448AFF3C1
:1001A00000800123237010BD00000020000000002B
:1001B000302F030808B5034B1BB103490348AFF3C5
:1001C000008008BD0000000004000020302F03085C
:1001D00010F8012B11F8013B012A28BF9A42F7D0F1
:1001E000D01A7047034613F8012B002AFBD1181AC6
:1001F000013870470000000000000000000000000F
:1002000001F0FF01102A2BDB10F0070F08D010F8C7
:10021000013B013A8B422DD010F0070F42B3F6D1CB
:10022000F0B441EA012141EA014122F007047FF0E4
:1002300000070023F0E80256083C85EA010586EA3B
:10024000010685FA47F5A3FA87F586FA47F6A5FA77
:1002500087F68EB9EED1F0BC01F0FF0102F0070283
:1002600032B110F8013B013A83EA010313B1F8D12E
:100270000020704701387047002D06BF354603380F
:10028000073815F0010F07D1013015F4807F02BF48
:10029000013015F4C03F0130F0BC0138704700BF99
:1002A00081F0004102E000BF83F0004330B54FEA27
:1002B00041044FEA430594EA050F08BF90EA020F94
:1002C0001FBF54EA000C55EA020C7FEA645C7FEA27
:1002D000655C00F0E2804FEA5454D4EB5555B8BF4A
:1002E0006D420CDD2C4480EA020281EA030382EABB
:1002F000000083EA010180EA020281EA0303362D4D
:1003000088BF30BD11F0004F4FEA01314FF4801C1F
:100310004CEA113102D0404261EB410113F0004F31
:100320004FEA03334CEA133302D0524263EB4303E8
:1003300094EA050F00F0A780A4F10104D5F1200E86
:100340000DDB02FA0EFC22FA05F2801841F10001E1
:1003500003FA0EF2801843FA05F359410EE0A5F1B5
:1003600020050EF1200E012A03FA0EFC28BF4CF0E6
:10037000020C43FA05F3C01851EBE37101F000459C
:1003800007D54FF0000EDCF1000C7EEB00006EEBA9
:100390000101B1F5801F1BD3B1F5001F0CD3490833
:1003A0005FEA30004FEA3C0C04F101044FEA44528A
:1003B00012F5800F80F09A80BCF1004F08BF5FEA11
:1003C000500C50F1000041EB045141EA050130BDF1
:1003D0005FEA4C0C404141EB0101013C28BFB1F503
:1003E000801FE9D291F0000F04BF01460020B1FA4E
:1003F00081F308BF2033A3F10B03B3F120020CDA21
:100400000C3208DD02F1140CC2F10C0201FA0CF0FE
:1004100021FA02F10CE002F11402D8BFC2F1200C63
:1004200001FA02F120FA0CFCDCBF41EA0C01904019
:10043000E41AA2BF01EB0451294330BD6FEA040462
:100440001F3C1CDA0C340EDC04F11404C4F120024D
:1004500020FA04F001FA02F340EA030021FA04F35F
:1004600045EA030130BDC4F10C04C4F1200220FAB6
:1004700002F001FA04F340EA0300294630BD21FAF4
:1004800004F0294630BD94F0000F83F4801306BFBA
:1004900081F480110134013D4EE77FEA645C18BFAE
:1004A0007FEA655C29D094EA050F08BF90EA020F45
:1004B00005D054EA000C04BF1946104630BD91EA3D
:1004C000030F1EBF0021002030BD5FEA545C05D140
:1004D0004000494128BF41F0004130BD14F580047F
:1004E0003CBF01F5801130BD01F0004545F0FE41F3
:1004F00041F470014FF0000030BD7FEA645C1ABF28
:10050000194610467FEA655C1CBF0B46024650EA5E
:10051000013406BF52EA033591EA030F41F400218A
:1005200030BD00BF90F0000F04BF0021704730B510
:100530004FF4806404F132044FF000054FF00001E5
:1005400050E700BF90F0000F04BF0021704730B5A6
:100550004FF4806404F1320410F0004548BF40427B
:100560004FF000013EE700BF42004FEAE2014FEAD0
:1005700031014FEA02701FBF12F07F4393F07F4FAB
:1005800081F06051704732F07F4208BF704793F0AE
:100590007F4F04BF41F40021704730B54FF46074C1
:1005A00001F0004521F000411CE700BF50EA0102C4
:1005B00008BF704730B54FF000050AE050EA01026D
:1005C00008BF704730B511F0004502D5404261EBDD
:1005D00041014FF4806404F132045FEA915C3FF41E
:1005E000D8AE4FF003025FEADC0C18BF03325FEABB
:1005F000DC0C18BF033202EBDC02C2F1200300FA6C
:1006000003FC20FA02F001FA03FE40EA0E0021FA90
:1006100002F11444BDE600BF70B54FF0FF0C4CF47E
:10062000E06C1CEA11541DBF1CEA135594EA0C0F30
:1006300095EA0C0F00F0DEF82C4481EA030621EA6B
:100640004C5123EA4C5350EA013518BF52EA0335A6
:1006500041F4801143F4801338D0A0FB02CE4FF058
:100660000005E1FB02E506F00042E0FB03E54FF088
:100670000006E1FB03569CF0000F18BF4EF0010E80
:10068000A4F1FF04B6F5007F64F5407404D25FEA7C
:100690004E0E6D4146EB060642EAC62141EA55512F
:1006A0004FEAC52040EA5E504FEACE2EB4F1FD0C71
:1006B00088BFBCF5E06F1ED8BEF1004F08BF5FEAEF
:1006C000500E50F1000041EB045170BD06F00046A1
:1006D00046EA010140EA020081EA0301B4EB5C044E
:1006E000C2BFD4EB0C0541EA045170BD41F4801146
:1006F0004FF0000E013C00F3AB8014F1360FDEBF6B
:10070000002001F0004170BDC4F10004203C35DA46
:100710000C341BDC04F11404C4F1200500FA05F3C9
:1007200020FA04F001FA05F240EA020001F000426A
:1007300021F0004110EBD37021FA04F642EB0601E0
:100740005EEA430E08BF20EAD37070BDC4F10C040A
:10075000C4F1200500FA04F320FA05F001FA04F2CE
:1007600040EA020001F0004110EBD37041F10001BA
:100770005EEA430E08BF20EAD37070BDC4F12005C5
:1007800000FA05F24EEA020E20FA04F301FA05F22D
:1007900043EA020321FA04F001F0004121FA04F2D5
:1007A00020EA020000EBD3705EEA430E08BF20EAA5
:1007B000D37070BD94F0000F0FD101F000464000DF
:1007C00041EB010111F4801F08BF013CF7D041EA61
:1007D000060195F0000F18BF704703F00046520065
:1007E00043EB030313F4801F08BF013DF7D043EA36
:1007F0000603704794EA0C0F0CEA135518BF95EAEC
:100800000C0F0CD050EA410618BF52EA4306D1D172
:1008100081EA030101F000414FF0000070BD50EA91
:10082000410606BF1046194652EA430619D094EA1B
:100830000C0F02D150EA013613D195EA0C0F05D105
:1008400052EA03361CBF104619460AD181EA030159
:1008500001F0004141F0FE4141F470014FF0000011
:1008600070BD41F0FE4141F4780170BD70B54FF0AC
:10087000FF0C4CF4E06C1CEA11541DBF1CEA13552C
:1008800094EA0C0F95EA0C0F00F0A7F8A4EB05040E
:1008900081EA030E52EA03354FEA013100F0888005
:1008A0004FEA03334FF0805545EA131343EA1263CE
:1008B0004FEA022245EA111545EA10654FEA002683
:1008C0000EF000419D4208BF964244F1FD0404F53C
:1008D000407402D25B084FEA3202B61A65EB030598
:1008E0005B084FEA32024FF480104FF4002CB6EB55
:1008F000020E75EB030E22BFB61A754640EA0C00D5
:100900005B084FEA3202B6EB020E75EB030E22BF14
:10091000B61A754640EA5C005B084FEA3202B6EB55
:10092000020E75EB030E22BFB61A754640EA9C0014
:100930005B084FEA3202B6EB020E75EB030E22BFE4
:10094000B61A754640EADC0055EA060E18D04FEAA2
:10095000051545EA16754FEA06164FEAC30343EA42
:1009600052734FEAC2025FEA1C1CC0D111F4801F0F
:100970000BD141EA00014FF000004FF0004CB6E708
:1009800011F4801F04BF01430020B4F1FD0C88BFA7
:10099000BCF5E06F3FF6AFAEB5EB030C04BFB6EBB2
:1009A000020C5FEA500C50F1000041EB045170BDA5
:1009B0000EF0004E4EEA113114EB5C04C2BFD4EBD2
:1009C0000C0541EA045170BD41F480114FF0000E56
:1009D000013C90E645EA060E8DE60CEA135594EAD2
:1009E0000C0F08BF95EA0C0F3FF43BAF94EA0C0FD5
:1009F0000AD150EA01347FF434AF95EA0C0F7FF44A
:100A000025AF104619462CE795EA0C0F06D152EA9D
:100A100003353FF4FDAE1046194622E750EA410681
:100A200018BF52EA43067FF4C5AE50EA41047FF492
:100A30000DAF52EA43057FF4EBAE12E74FF0FF3CF7
:100A400006E000BF4FF0010C02E000BF4FF0010CC8
:100A50004DF804CD4FEA410C7FEA6C5C4FEA430C41
:100A600018BF7FEA6C5C1BD001B050EA410C0CBF90
:100A700052EA430C91EA030F02BF90EA020F0020F2
:100A8000704710F1000F91EA030F58BF994208BF59
:100A900090422CBFD8176FEAE37040F00100704716
:100AA0004FEA410C7FEA6C5C02D150EA013C07D16D
:100AB0004FEA430C7FEA6C5CD6D152EA033CD3D0B8
:100AC0005DF8040B704700BF8446104662468C46B2
:100AD0001946634600E000BF01B5FFF7B7FF0028E5
:100AE00048BF10F1000F01BD4DF808EDFFF7F4FF0E
:100AF0000CBF012000205DF808FB00BF4DF808ED99
:100B0000FFF7EAFF34BF012000205DF808FB00BFBB
:100B10004DF808EDFFF7E0FF94BF012000205DF8DD
:100B200008FB00BF4DF808EDFFF7CEFF94BF012092
:100B300000205DF808FB00BF4DF808EDFFF7C4FF8B
:100B400034BF012000205DF808FB00BF4FEA410CD4
:100B50007FEA6C5C02D150EA013C0AD14FEA430CB7
:100B60007FEA6C5C02D152EA033C02D14FF00000F4
:100B700070474FF0010070474FEA410212F5001232
:100B800015D211D56FF47873B3EB625212D94FEAD4
:100B9000C12343F0004343EA505311F0004F23FABE
:100BA00002F018BF404270474FF00000704750EA13
:100BB000013005D111F0004008BF6FF000407047D0
:100BC0004FF00000704700BF4A0011D212F500122A
:100BD00011D20DD56FF47873B3EB62520ED44FEA95
:100BE000C12343F0004343EA505323FA02F0704715
:100BF0004FF00000704750EA013002D14FF0FF3053
:100C000070474FF00000704753B94AB9002908BF38
:100C100000281CBF4FF0FF314FF0FF3000F0AAB9A1
:100C2000ADF1080C6DE904CE00F03CF8DDF804E00D
:100C3000DDE9022304B0704738B5002200230446E2
:100C40000D46FFF75BFF28B920462946BDE838402E
:100C500000F00AB8204605F1004100F005F84042D6
:100C600061EB410138BD00BFD0B50C4B00220646F8
:100C70000F46FFF7D1FCFFF7A7FF0446FFF752FC32
:100C8000074B0022FFF7C8FC02460B4630463946A8
:100C9000FFF70AFBFFF798FF2146D0BD0000F03DAB
:100CA0000000F0412DE9F047089D04468E46002BD8
:100CB0004DD18A42944669D9B2FA82F252B101FA10
:100CC00002F3C2F1200120FA01F10CFA02FC41EA20
:100CD000030E94404FEA1C48210CBEFBF8F61FFAA5
:100CE0008CF708FB16E341EA034306FB07F1994240
:100CF0000AD91CEB030306F1FF3080F01F819942F3
:100D000040F21C81023E63445B1AA4B2B3FBF8F0CC
:100D100008FB103344EA034400FB07F7A7420AD953
:100D20001CEB040400F1FF3380F00A81A74240F27B
:100D300007816444023840EA0640E41B00261DB1E6
:100D4000D4400023C5E900433146BDE8F0878B421B
:100D500009D9002D00F0EF800026C5E900013046DA
:100D60003146BDE8F087B3FA83F6002E4AD18B42B4
:100D700002D3824200F2F980841A61EB030301205E
:100D80009E46002DE0D0C5E9004EDDE702B9FFDE4A
:100D9000B2FA82F2002A40F09280A1EB0C014FEAF5
:100DA0001C471FFA8CFE0126200CB1FBF7F307FB52
:100DB000131140EA01410EFB03F0884208D91CEBF5
:100DC000010103F1FF3802D2884200F2CB80434692
:100DD000091AA4B2B1FBF7F007FB101144EA014471
:100DE0000EFB00FEA64508D91CEB040400F1FF3100
:100DF00002D2A64500F2BB800846A4EB0E0440EAEE
:100E000003409CE7C6F12007B34022FA07FC4CEAF6
:100E1000030C20FA07F401FA06F31C43F9404FEAE9
:100E20001C4900FA06F3B1FBF9F8200C1FFA8CFEFE
:100E300009FB181140EA014108FB0EF0884202FA52
:100E400006F20BD91CEB010108F1FF3A80F0888013
:100E5000884240F28580A8F102086144091AA4B2D0
:100E6000B1FBF9F009FB101144EA014100FB0EFE51
:100E70008E4508D91CEB010100F1FF346CD28E4580
:100E80006AD90238614440EA0840A0FB0294A1EB11
:100E90000E01A142C846A64656D353D05DB1B3EB6E
:100EA000080261EB0E0101FA07F722FA06F3F1409E
:100EB0001F43C5E9007100263146BDE8F087C2F145
:100EC0002003D8400CFA02FC21FA03F391400143BD
:100ED0004FEA1C471FFA8CFEB3FBF7F007FB1036F6
:100EE0000B0C43EA064300FB0EF69E4204FA02F4A2
:100EF00008D91CEB030300F1FF382FD29E422DD9F5
:100F0000023863449B1B89B2B3FBF7F607FB163329
:100F100041EA034106FB0EF38B4208D91CEB0101A9
:100F200006F1FF3816D28B4214D9023E6144C91A29
:100F300046EA004638E72E46284605E70646E3E639
:100F40001846F8E64B45A9D2B9EB020864EB0C0E43
:100F50000138A3E74646EAE7204694E74046D1E752
:100F6000D0467BE7023B614432E7304609E7644400
:100F7000023842E7704700BF80B485B000AF7860A8
:100F80000B46FB700023FB7322E07B685A1C7A60DF
:100F90001B78BB7308237B7317E0FA7BBB7B534042
:100FA000DBB203F001033B73FB7B5B08FB733B7B12
:100FB000002B04D0FB7B83F07303DB43FB73BB7B11
:100FC0005B08BB737B7B013B7B737B7B002BE4D19A
:100FD000FB785A1EFA70002BD7D1FB7B18461437CA
:100FE000BD465DF8047B704790B587B000AFF860F0
:100FF000B9607A60FB685B78002B01D1012344E083
:10100000FB685B683A7A1146184600F043FC7B7A2D
:10101000002B26D00023FB750CE0FB685868FB7D95
:101020007A68D418FF2100F035FC03462370FB7D5D
:101030000133FB757B7AFA7D9A42EED37B7A013BD2
:10104000DBB219467868FFF797FF03467B757B7A1A
:10105000013B7A6813441B787A7D9A4214D00123AD
:1010600013E00023BB750BE0FB685868BB7D7A6812
:1010700013441B78194600F00DFCBB7D0133BB7592
:10108000BB7ABA7D9A42EFD3002318461C37BD467F
:1010900090BD80B584B000AF78607B685B6801214B
:1010A000184600F0B7FB0346FB7307E07B685B68FC
:1010B0000121184600F0AEFB0346FB73FB7BFF2BC0
:1010C000F4D100BF00BF1037BD4680BD80B584B0ED
:1010D00000AF78600B46FB7007F10A031C491A4603
:1010E00009687868FFF780FF0346FB72FB78012BE5
:1010F00002D17868FFF7CDFFFB78022B22D10023C5
:10110000FB607B681B7C7F2B14D07F2B16DC5F2B56
:101110000CD05F2B12DC1F2B02D03F2B03D00DE035
:101120005E23FB600BE0BC23FB6008E040F277131A
:10113000FB6004E040F2EE23FB6000E000BFF868D3
:101140000AF0DCFEFB7A18461037BD4680BD00BFB2
:101150001000001080B586B000AF786007F108037A
:1011600038491A4609687868FFF73EFF03467B75E1
:101170007B7D002B01D07B7D60E07B687D22DA7374
:101180007B6837229A733A7B7B681A747B7A1B02DE
:101190001AB23B7A1BB213431BB2FB82FB8A23F4C5
:1011A000FF6323F007037B827B8A002B02D0FB8A3C
:1011B0005B42FB827B681B7C7F2B1DD07F2B20DC5E
:1011C0005F2B12D05F2B1CDC1F2B02D03F2B05D0D6
:1011D00017E0FB8A03F4FF63FB8217E0FB8A23F02E
:1011E00003035B055B0DFB8210E0FB8A23F0010328
:1011F0005B055B0DFB8209E0FB8AC3F30A03FB82FC
:1012000004E0FB8AC3F30A03FB8200BFFB8A07EEFC
:10121000903AF8EE677A9FED0C7A67EE877A7B68F2
:10122000C3ED057A7B8A002B07D07B68D3ED057A66
:10123000F1EE677A7B68C3ED057A0023184618370C
:10124000BD4680BD080000100000803D80B584B020
:1012500000AF786039600F4B3A6819687868FFF71B
:10126000C3FE0346FB73FB7B002B01D0FB7B0CE032
:101270003B681A787B68DA733B685A787B689A73A4
:101280003B689A787B681A74FB7B18461037BD461A
:1012900080BD00BF0C00001080B584B000AF786046
:1012A0007B681B78002B01D1012312E07B685B680F
:1012B000184600F025FB0346FB73FB7B002B04D193
:1012C0007B6801225A70002303E07B6800225A7079
:1012D000012318461037BD4680BD000080B586B09A
:1012E00000AF786007F10C0312491A460968786864
:1012F000FFF77AFE0346BB75BB7D002B01D0BB7D9B
:1013000014E00023FB750DE0FB7D5A1CFB7D1832B9
:101310003A4412F80C1C7A6813440A461A72FB7D90
:101320000133FB75FB7D052BEED9002318461837DA
:10133000BD4680BD0000001080B584B000AF78606D
:1013400007F10E0308491A4609687868FFF74CFE52
:101350000346FB73FB7B002B01D0FB7B00E00023EB
:1013600018461037BD4680BD0400001080B483B01D
:1013700000AF786039607B6800225A707B683A68F9
:101380005A607B6801221A7000BF0C37BD465DF8B9
:10139000047B70472DE9B04FC0B000AFC7F8F40030
:1013A000C7F8F0100023C7F8FC30D7F8F420D7F8BE
:1013B000F0305360D7F8F4301A688F4B9A4205D05A
:1013C000D7F8F4301A688D4B9A4204D10DF00AFF19
:1013D000C7F8FC0003E00DF0F1FEC7F8FC00D7F8F9
:1013E000F430DB69B3F5004F40F00C81D7F8FC30E6
:1013F0000022C7F8E830C7F8EC20D7E93A45224682
:101400002B469118B9655B41FB65D7E91623214648
:1014100012EB0108294643EB01094FF000024FF09F
:1014200000034FEAC90343EA58734FEAC8029046E3
:101430009946234618EB0303C7F8E0302B4649EBE7
:101440000303C7F8E430D7F8F4305B680022C7F82C
:10145000D830C7F8DC20D7E936120B46DB183B65DD
:10146000134642EB03037B65D7E91423D7E9380120
:10147000FFF7CAFB02460B46614BA3FB02235B0945
:101480001C01D7F8FC300022C7F8D030C7F8D420B0
:10149000D7E9348942464B469118B9645B41FB64F5
:1014A000D7E91223414612EB010A494643EB010BEF
:1014B0004FF000024FF000034FEACB0343EA5A73A8
:1014C0004FEACA0292469B4643461AEB0303C7F80B
:1014D000C8304B464BEB0303C7F8CC30D7F8F43099
:1014E0005B680022C7F8C030C7F8C420D7E93012C3
:1014F0000B46DB183B64134642EB03037B64D7E9DE
:101500001023D7E93201FFF77FFB02460B46114655
:101510003B4BA3FB01235B09642202FB03F3CB1AC1
:10152000DB0003F13202364BA3FB02235B095B00B5
:1015300003F4F8731C44D7F8FC300022C7F8B83025
:10154000C7F8BC20D7E92E8942464B469118B963AB
:101550005B41FB63D7E90E23414651183963494685
:101560004B417B634FF000024FF00003D7E90CAB17
:101570005946CB00514643EA51735146CA001046C2
:101580001946034642469B18C7F8B0304B460A46F8
:1015900042EB0303C7F8B430D7F8F4305B6800229D
:1015A000C7F8A830C7F8AC20D7E92A120B46DB18D9
:1015B000BB62134642EB0303FB62D7E90A23D7E978
:1015C0002C01FFF721FB02460B460D4BA3FB021338
:1015D0005B09642101FB03F3D31ADB003233084AB1
:1015E000A2FB03235B0903F00702D7F8F4301B6862
:1015F00022449A6005E100BF001001400014014040
:101600001F85EB51D7F8FC300022C7F8A030C7F88F
:10161000A420D7E9288942464B46911839625B419C
:101620007B62D7E9082341465418494643EB01053C
:101630004FF000024FF00003EB0043EA5473E20066
:1016400014461D464346E318C7F898304B4645EB11
:101650000303C7F89C30D7F8F4305B680022C7F862
:101660009030C7F894204FF000024FF00003D7E904
:10167000244529468B00214643EA917321468A007E
:10168000D7E92601FFF7C0FA02460B46604BA3FBE1
:1016900002235B091C01D7F8FC300022C7F8883010
:1016A000C7F88C20D7E9228942464B469118B96188
:1016B0005B41FB61D7E90623414651183961494630
:1016C0004B417B614FF000024FF00003D7E904ABC0
:1016D0005946CB00514643EA51735146CA00104661
:1016E0001946034642469B18C7F880304B460A46C7
:1016F00042EB0303C7F88430D7F8F4305B6800226C
:10170000BB67FA674FF000024FF00003D7E91E896C
:1017100049468B00414643EA917341468A00D7E926
:101720002001FFF771FA02460B46394BA3FB021367
:101730005B09642101FB03F3D31A1B013233344AE2
:10174000A2FB03235B0903F0F0031C44D7F8FC3031
:1017500000223B677A67D7E91C8942464B469118BD
:10176000B9605B41FB60D7E90223414651183960FB
:1017700049464B417B604FF000024FF00003D7E930
:1017800000AB5946CB00514643EA51735146CA005B
:1017900010461946034642469B18BB664B460A460E
:1017A00042EB0303FB66D7F8F4305B6800223B662C
:1017B0007A664FF000024FF00003D7E918894946D6
:1017C0008B00414643EA917341468A00D7E91A01EA
:1017D000FFF71AFA02460B460D4BA3FB02135B09F7
:1017E000642101FB03F3D31A1B013233084AA2FB25
:1017F00003235B0903F00F02D7F8F4301B6822447F
:101800009A6000BF07F58077BD46BDE8B08F00BF86
:101810001F85EB5180B582B000AF78600B46FB703E
:10182000184BFF221A70184B00221A70FB78002BFD
:1018300002D1144B00221A7001221249786810F06C
:10184000A7FA124B1B6841F28831184613F040FA90
:1018500001220D49786810F0E0FA0C4B1B6841F248
:101860008831184613F034FA0346012B03D0084B95
:101870001B6801229A71044B1B7818460837BD4635
:1018800080BD00BF13000010200000204047012051
:101890001C42012080B584B000AF78600B46FB701D
:1018A0000023FB730023BB7322E0FA78BB7B42FA70
:1018B00003F3DBB203F001033B7300237B733B7B39
:1018C00019467868FFF7A6FF0346FB72FB7AFF2BE9
:1018D00001D101237B737A7BBB7B02FA03F35AB2FB
:1018E00097F90F3013435BB2FB73BB7B0133BB73C0
:1018F000BB7B072BD9D9FB7B18461037BD4680BD73
:1019000080B584B000AF78600023FB73F023BB7315
:1019100000237B734FF416517868FFF73BFD07F106
:101920000E0301221946786810F032FA124B1B6838
:1019300041F28831184613F0CBF907F10D0301226B
:101940001946786810F069FA0B4B1B6841F2883130
:10195000184613F0BDF94FF4E1317868FFF71AFD2E
:101960007A7BBB7B9A4201D10123FB73FB7B184638
:101970001037BD4680BD00BF4047012080B500AF95
:10198000034B1B680349184613F035F800BF80BDB0
:10199000404701201C00002080B500AF034B1B68AE
:1019A0000349184613F027F800BF80BD40470120C7
:1019B0001C00002080B485B000AF78600023FB607D
:1019C0007B68444A934206D87B68B3F1006F02D328
:1019D0000023FB6077E07B683F4A934206D87B6830
:1019E0003E4A934202D30123FB606CE07B683C4A91
:1019F000934206D87B683B4A934202D30223FB60A2
:101A000061E07B68384A934206D27B68374A93424A
:101A100002D30323FB6056E07B68354A934206D22B
:101A20007B68314A934202D90423FB604BE07B6818
:101A3000304A934206D27B682D4A934202D905234D
:101A4000FB6040E07B682C4A934206D27B68294ABF
:101A5000934202D90623FB6035E07B68274A934214
:101A600006D27B68244A934202D90723FB602AE00E
:101A70007B68234A934206D27B68204A934202D96C
:101A80000823FB601FE07B681E4A934206D27B68F6
:101A90001B4A934202D90923FB6014E07B681A4A6F
:101AA000934206D87B68174A934202D90A23FB6007
:101AB00009E07B68154A934205D87B68144A934233
:101AC00001D90B23FB60FB6818461437BD465DF84F
:101AD000047B7047FE3F0008FE7F000800400008BE
:101AE000FEBF000800800008FFFF000800C00008DB
:101AF000FFFF0108FFFF0308FFFF0508FFFF0708BE
:101B0000FFFF0908FFFF0B08FEFF0D08FEFF0F088F
:101B1000FFFF0D0880B586B000AF78600CF022F9A9
:101B20007868FFF747FF78617B6803F5C8733B610E
:101B30003869FFF73FFFF860114B00221A60104B25
:101B400002221A610E4A7B699360FA687B69D31A94
:101B500001330B4AD36007F10803194608480CF01B
:101B60006FFA0346002B03D00CF02EF9034602E077
:101B70000CF01AF9002318461837BD4680BD00BF87
:101B80002400002080B500AF0022082104480CF09A
:101B90002DFD08220349044810F0EEF900BF80BD76
:101BA000000C024048420120FC4A012080B400AFF2
:101BB0000F4B1A780F4B1B789A4214D10C4B5A7862
:101BC0000C4B5B789A420ED10B4B01221A70084BDA
:101BD000DB781B021AB2064B1B791BB213431BB2F4
:101BE0009AB2064B1A8000BFBD465DF8047B704771
:101BF00048420120504201203C420120284201205D
:101C000080B582B000AF78600122082105480CF051
:101C1000EDFC08227968044810F030F900BF08375D
:101C2000BD4680BD000C0240FC4A012080B584B056
:101C300000AF0346FB710B46BB8013467B80224AF4
:101C4000FB791370204B06225A701F4B00229A70AA
:101C5000BB88DAB21C4BDA701B4B00221A717B88EE
:101C6000DAB2194B5A710621174800F085F803467D
:101C7000FB81FB89DAB2144B9A71FB891B0A9BB278
:101C8000DAB2114BDA71114AFB7913700F4B06224D
:101C90005A700E4ABB8853800C4A7B8893800A484E
:101CA000FFF7AEFF642012F052F8094B1B78002BAF
:101CB00004D0074B00221A70012301E04FF0FF33DC
:101CC00018461037BD4680BD4042012050420120D9
:101CD0003C42012080B584B000AF03460A46FB7148
:101CE0001346BB80204AFB7913701F4B03225A70A6
:101CF0001D4B00229A70BB88DAB21B4BDA701A4B6C
:101D000000221A71184B01225A710621164800F060
:101D100033F80346FB81FB89DAB2134B9A71FB89D6
:101D20001B0A9BB2DAB2104BDA71104AFB791370BE
:101D30000E4B03225A700D4ABB8853800A48FFF7A6
:101D40005FFF642012F003F8094B1B78002B05D0CD
:101D5000074B00221A70074B1B8801E04FF0FF333E
:101D600018461037BD4680BD404201205042012038
:101D70003C4201202842012080B485B000AF786049
:101D80000B467B80FF23FB73FF23BB7313E07B6851
:101D90005A1C7A601A78BB7B5340DBB2BB600F4A97
:101DA000BB6813441A78FB7B5340BB730C4ABB6877
:101DB00013441B78FB737B885A1E7A80002BE6D174
:101DC000FB7B1B021AB2BB7B1BB213431BB29BB241
:101DD00018461437BD465DF8047B704798A2030887
:101DE00098A3030880B582B000AF0346FB71FB1DCA
:101DF0000122194603480DF013FE00BF0837BD4607
:101E000080BD00BF0848012080B584B000AF034604
:101E1000FB7107F10F02F91D012304480DF0B6FE16
:101E2000FB7B18461037BD4680BD00BF0848012027
:101E300080B584B000AF0023FB600023BB600023AB
:101E40007B6000233B600022102113480CF0CEFB86
:101E50009F20FFF7C7FFA520FFF7D6FF0346BB6013
:101E6000A520FFF7D1FF03467B60A520FFF7CCFF3D
:101E700003463B600122102107480CF0B7FBBB680A
:101E80001A047B681B0213433A681343FB60FB6828
:101E900018461037BD4680BD0000024090B583B0A3
:101EA00000AF0022102116480CF0A0FB4B20FFF7DA
:101EB00099FF0023FB7105E0A520FFF793FFFB7955
:101EC0000133FB71FB79032BF6D90023BB710BE0C7
:101ED000BC79A520FFF798FF03461A46094B234417
:101EE0005A70BB790133BB71BB79072BF0D9012242
:101EF000102103480CF07AFB00BF0C37BD4690BDA3
:101F0000000002405842012080B500AF002210219D
:101F100007480CF06BFB0620FFF764FF012210213D
:101F200003480CF063FB012009F0E8FF00BF80BD0F
:101F30000000024080B584B000AF0346FB7100236F
:101F4000FB73002210211C480CF050FBFB79012B85
:101F50000CD10520FFF746FFA520FFF755FF0346EC
:101F6000FB73164AFB7B82F824301BE0FB79022BC3
:101F70000CD13520FFF736FFA520FFF745FF0346BC
:101F8000FB730E4AFB7B82F825300BE01520FFF730
:101F900029FFA520FFF738FF0346FB73074AFB7BA9
:101FA00082F826300122102103480CF01FFBFB7B36
:101FB00018461037BD4680BD00000240584201203F
:101FC00080B500AF012009F099FF002210210F48D1
:101FD0000CF00CFB0520FFF705FFA520FFF714FF11
:101FE00003461A460A4B83F82420012009F086FF95
:101FF000074B93F8243003F00103002BEDD10122AD
:10200000102102480CF0F2FA00BF80BD000002402F
:102010005842012080B582B000AF904B012283F876
:10202000272002E0012009F069FF09F05BFF034669
:10203000632BF7D90122102189480CF0D7FA6420CC
:1020400009F05CFF87482CF0BFFEFFF7F1FE7860D7
:10205000796885482CF032FE7B68DBB2113B0F2B90
:1020600000F28B8001A252F823F000BF6721000824
:10207000532100083F2100082B21000817210008E8
:1020800003210008EF200008D9200008C320000821
:102090007B2100087B2100087B2100087B210008B0
:1020A0007B2100087B210008AD2000086B4B0A2231
:1020B0001A706A4B4FF48062DA616C482CF084FE2F
:1020C00064E0664B09221A70644B4FF40072DA61C7
:1020D00067482CF079FE59E0604B08221A705F4B7C
:1020E0004FF48072DA6163482CF06EFE4EE05B4B79
:1020F00007221A70594B8022DA615F482CF064FE87
:1021000044E0564B06221A70544B4022DA615B4879
:102110002CF05AFE3AE0514B05221A704F4B202208
:10212000DA6157482CF050FE30E04C4B04221A7014
:102130004A4B1022DA6153482CF046FE26E0474B0A
:1021400003221A70454B0822DA614F482CF03CFEFE
:102150001CE0424B02221A70404B0422DA614B48C9
:102160002CF032FE12E03D4B01221A703B4B022252
:10217000DA6147482CF028FE08E046482CF024FE9F
:10218000364B002283F82720002363E0334B4FF4C3
:1021900080725A81314B4FF480521A612F4BDB69A8
:1021A0001B012E4A53612D4B5B692C4A126902FBBD
:1021B00003F32A4A5289B3FBF2F3284AD360274B30
:1021C0001B691B01254A9361244B5B69234A1269F1
:1021D00002FB03F39B0A214A1362FFF75FFE012013
:1021E000FFF7A8FE0220FFF7A5FE0320FFF7A2FEDF
:1021F0001A4B5B89194628482CF060FD174BDB68A9
:10220000194626482CF05AFD144B1B6919462448E0
:102210002CF054FD114B5B69194622482CF04EFD01
:102220000E4B9B69194620482CF048FD0B4BDB698F
:1022300019461E482CF042FD084B1B6A19461C48E3
:102240002CF03CFD1B482CF0BFFD044B002283F812
:102250002720012318460837BD4680BD584201207B
:1022600000000240482F0308682F0308842F03084A
:10227000A42F0308C42F0308E42F03080430030825
:102280002430030844300308643003088430030812
:10229000A4300308C4300308E03003080831030801
:1022A0002831030850310308743103089C310308B6
:1022B000C0310308E831030880B584B000AF78600E
:1022C00002E0012009F01AFE2D4B93F82730012B74
:1022D000F7D02B4B012283F8272009F003FEF8608A
:1022E000796828482CF0EAFCFFF76AFE244B1A694B
:1022F0007B6802FB03F37B60FFF706FE00221021E0
:1023000021480CF073F91E4B1B78082B09D92120AA
:10231000FFF768FD7B681B0EDBB21846FFF762FD16
:1023200002E02020FFF75EFD7B681B0CDBB2184645
:10233000FFF758FD7B681B0ADBB21846FFF752FD1A
:102340007B68DBB21846FFF74DFD012210210E48D5
:102350000CF04CF9FFF734FE09F0C4FD0246FB68AF
:10236000D31A194609482CF0A9FC012009F0C6FD32
:10237000034B002283F8272000BF1037BD4680BDE5
:1023800058420120583203080000024084320308FA
:1023900080B483B000AF7860074B1B697A6802FB9A
:1023A00003F3054A5289B3FBF2F318460C37BD46D6
:1023B0005DF8047B704700BF5842012080B584B0AF
:1023C00000AF03463960FB7102E0012009F096FD81
:1023D0002C4B93F82730012BF7D02A4B012283F89E
:1023E000272009F07FFDF860FB793A6819462648F6
:1023F0002CF064FCFFF7E4FDFFF786FD00221021BE
:1024000022480CF0F3F81F4B1B78082B09D9122037
:10241000FFF7E8FC3B681B0EDBB21846FFF7E2FC57
:1024200002E00220FFF7DEFC3B681B0CDBB2184623
:10243000FFF7D8FC3B681B0ADBB21846FFF7D2FC5B
:102440003B68DBB21846FFF7CDFCFB791846FFF777
:10245000C9FC012210210D480CF0C8F8FFF7B0FDAF
:1024600009F040FD0246FB68D31A194608482CF0D3
:1024700025FC044B002283F8272000BF1037BD46FF
:1024800080BD00BF58420120F43403080000024020
:102490002C35030880B584B000AFF860B9607A606D
:1024A0003B6002E0012009F029FD384B93F827300A
:1024B000012BF7D0354B012283F827203A687B683F
:1024C0001344324A5289934202D83B68002B05D10B
:1024D0002E4B5B891A467B68D31A3B607A683B684F
:1024E00013442A4A5289934205D9284B5B891A46DC
:1024F0007B68D31A3B60FFF763FDFFF705FD002201
:10250000102123480CF072F8204B5B891A46BB68F7
:1025100002FB03F37A681344BB601C4B1B78082B47
:1025200009D91220FFF75EFCBB681B0EDBB2184610
:10253000FFF758FC02E00220FFF754FCBB681B0CBD
:10254000DBB21846FFF74EFCBB681B0ADBB218462D
:10255000FFF748FCBB68DBB21846FFF743FC3B685B
:102560009BB21A46F9680B480DF05AFA0122102165
:1025700007480CF03BF8FFF723FD044B002283F8DB
:10258000272000BF1037BD4680BD00BF5842012044
:10259000000002400848012080B588B000AFF86014
:1025A000B9607A603B60334B1B693A689A4202D843
:1025B0003B68002B02D12F4B1B693B603B687A685C
:1025C000B9682D482CF07AFB2A4B1B697A689A422D
:1025D00006D32A482CF0F8FB642009F08FFC45E074
:1025E0007A683B681A44234B1B699A4205D9214BF0
:1025F0001A697B68D31ABB6101E03B68BB61B868AC
:10260000FFF7C6FE02461B4B5B8919467B68B3FB8E
:10261000F1F31344FB61174B5B891A467B68B3FBEC
:10262000F2F101FB02F29B1A7B61BB697A69F969DD
:10263000F868FFF72FFFFB690133FB610D4B5B89E6
:102640001A467B699A1ABB691344BB61094B5B89C3
:102650001A467B69D31AFA681344FB6000237B6136
:10266000BB69002BE1DC06482CF0AEFB2037BD46F1
:1026700080BD00BF5842012058350308A03503082B
:10268000C835030890B585B000AF7860396002E0C6
:10269000012009F033FC2D4B93F82730012BF7D0A4
:1026A0002A4B012283F8272009F01CFCF8603968C6
:1026B00027482CF003FB0022102126480BF096FF40
:1026C000224B1B78082B09D90C20FFF78BFB3B68AA
:1026D0001B0EDBB21846FFF785FB02E00B20FFF76D
:1026E00081FB3B681B0CDBB21846FFF77BFB3B68AA
:1026F0001B0ADBB21846FFF775FB3B68DBB21846D6
:10270000FFF770FB0020FFF76DFBA520FFF77CFBB8
:1027100003461A467B681A70012210210D480BF0FF
:1027200065FF7B681B781C4609F0DCFB0246FB68F2
:10273000D31A1A46214608482CF0C0FA034B00224F
:1027400083F8272000BF1437BD4690BD58420120B2
:102750008036030800000240B436030880B586B016
:1027600000AFF860B9607A603B6002E0012009F0D8
:10277000C5FB494B93F82730012BF7D0464B01227C
:1027800083F82720444B5B891A463B68934202D862
:102790003B68002B02D1404B5B893B607A683B6809
:1027A00013443D4A5289934205D93B4B5B891A46F3
:1027B0007B68D31A3B603B687A68B96837482CF06D
:1027C0007DFA354B5B891A46BB6802FB03F37A68D6
:1027D0001344BB600022102131480BF007FF2E4B41
:1027E0001B78082B09D90C20FFF7FCFABB681B0EDD
:1027F000DBB21846FFF7F6FA02E00B20FFF7F2FA19
:10280000BB681B0CDBB21846FFF7ECFABB681B0A6F
:10281000DBB21846FFF7E6FABB68DBB21846FFF7F3
:10282000E1FA0020FFF7DEFA3B689AB26423F96808
:102830001C480CF042FE0122102119480BF0D6FE74
:1028400000237B6118E07B6903F00703002B08D1AC
:102850007B69022B05D914482CF0B6FA0A2009F03E
:102860004DFBFA687B6913441B7819460F482CF01E
:1028700025FA7B6901337B617A693B689A42E2D32E
:1028800009482CF0A1FA044B002283F8272000BF4E
:102890001837BD4680BD00BF58420120703703087D
:1028A0000000024008480120283703083437030895
:1028B00080B588B000AFF860B9607A603B60364B95
:1028C0001B693A689A4202D83B68002B02D1324B0E
:1028D0001B693B603B687A68B96830482CF0EEF9B8
:1028E000642009F00BFB2C4B1B697A689A4206D3D3
:1028F0002B482CF069FA642009F000FB48E07A6864
:102900003B681A44244B1B699A4205D9224B1A6929
:102910007B68D31ABB6101E03B68BB61B868FFF715
:1029200037FD02461C4B5B8919467B68B3FBF1F30C
:102930001344FB61184B5B891A467B68B3FBF2F1C9
:1029400001FB02F29B1A7B61BB697A69F969F8683D
:10295000FFF704FFFB690133FB610F4B5B891A46EC
:102960007B699A1ABB691344BB610B4B5B891A469E
:102970007B69D31AFA681344FB6000237B61BB694F
:10298000002BE1DC07482CF01FFA642009F0B6FAAE
:102990002037BD4680BD00BF58420120B437030830
:1029A000FC3703082438030880B400AF044B1A68CE
:1029B000034B5B6813441846BD465DF8047B7047C3
:1029C0003800002080B485B000AF786039607B6843
:1029D000002B02D03B68002B01D1012356E07A681E
:1029E0003B689A420DD1002350E07B681B78002B96
:1029F00001D100234AE07B6801337B603B680133EF
:102A00003B607B681B78FB73FB7B0133224A1344DA
:102A10001B7803F00303012B03D1FB7B03F120029E
:102A200000E0FA7B3B681B78BB73BB7B01331A4920
:102A30000B441B7803F00303012B02D1BB7B203333
:102A400000E0BB7B9A42D0D07B681B787B737B7B9A
:102A50000133114A13441B7803F00303012B03D104
:102A60007B7B03F1200200E07A7B3B681B783B73A1
:102A70003B7B013308490B441B7803F00303012B14
:102A800002D13B7B203300E03B7BD31A184614373E
:102A9000BD465DF8047B7047900F040880B584B094
:102AA00000AF786039600023FB600023BB607B6867
:102AB000002B01D1002315E07868FDF793FB034656
:102AC0000133FB603B681B68F8689847B860BB68D7
:102AD000002B01D1002305E0FA687968B8682BF073
:102AE00019FABB6818461037BD4680BD80B584B062
:102AF00000AF78607B681B6828209847F860FB6807
:102B0000002B04D028220021F8682BF02BFAFB6858
:102B100018461037BD4680BD80B584B000AF7860E0
:102B20000023FB6037E07B681B68FB607B68DB6829
:102B300003F48073002B08D17B689B68002B04D0C2
:102B40007B689B681846FFF7E7FF7B68DB6803F448
:102B50008073002B09D17B681B69002B05D0124BB9
:102B60005B687A681269104698477B68DB6803F4F3
:102B70000073002B09D17B681B6A002B05D00A4B20
:102B80005B687A68126A10469847074B5B687868FA
:102B90009847FB687B607B68002BC4D100BF00BFF7
:102BA0001037BD4680BD00BF1400001080B400AFD8
:102BB0002E231846BD465DF8047B704700000000D8
:102BC00080B598B000AF786039604FF000024FF0E8
:102BD0000003C7E914230023BB64FFF7E7FF0346A4
:102BE00087F84F300023FB653B68002B03D03B6820
:102BF0001B68002B01D10023C6E00023FB6563E0C6
:102C00003B681A683B689968FB6D0B4413441B785A
:102C1000452B3DDC2B2B66DB2B3B1A2B63D801A20B
:102C200052F823F0952C0008E72C0008952C00089A
:102C3000B32C0008E72C0008952C0008952C000800
:102C4000952C0008952C0008952C0008952C000860
:102C5000952C0008952C0008952C0008952C000850
:102C6000E72C0008E72C0008E72C0008E72C0008F8
:102C7000E72C0008E72C0008E72C0008E72C0008E8
:102C8000E72C0008E72C0008E72C0008952C00082A
:102C9000652B28D13B681A683B689968FB6D0B442B
:102CA0001344197807F10802FB6D13440A461A70A1
:102CB00007E007F10802FB6D134497F84F201A70E4
:102CC00000BFFB6D0133FB65FB6D3E2B0DD83B68F0
:102CD000002B0AD03B689A68FB6D1A443B685B681E
:102CE0009A428DD301E000BF00E000BF07F1080267
:102CF000FB6D134400221A7007F1480207F1080324
:102D0000114618462CF0D2FF87ED140BBA6C07F170
:102D100008039A4201D1002336E07968D7E91423E9
:102D2000C1E906231BA3D3E90023D7E91401FDF76A
:102D3000F9FE0346002B04D07B686FF000425A6115
:102D400015E04FF00002124BD7E91401FDF7E0FE49
:102D50000346002B04D07B684FF000425A6106E026
:102D6000D7E91401FDF708FF02467B685A617B68CA
:102D70000822DA603B689B68B96C07F108028A1A7E
:102D80001A443B689A60012318466037BD4680BDEF
:102D90000000E0C10000C0FFFFFFDF4180B584B04C
:102DA00000AF786039600023FB600023BB607B6864
:102DB000002B03D07B681B68002B01D1002386E029
:102DC0007B685B68002B07D07B689A687B685B68D0
:102DD0009A4201D300237AE03B68002B01DA0023FA
:102DE00075E07B689A683B68134401333B607B68FD
:102DF0005B683A689A4205D87B681A687B689B686A
:102E0000134464E07B681B69002B01D000235EE063
:102E10003B68B3F1804F08D33B68002B03DB6FF0B6
:102E20000043BB6004E0002351E03B685B00BB60F3
:102E30007B681B6A002B18D07B681B6A7A68126853
:102E4000B96810469847F860FB68002B35D17B685D
:102E5000DB697A681268104698477B6800225A60DE
:102E60007B6800221A60002331E07B689B69B868A8
:102E70009847F860FB68002B0DD17B68DB697A68A6
:102E80001268104698477B6800225A607B680022CF
:102E90001A6000231BE0FB68002B08D07B681968D0
:102EA0007B689B6801331A46F8682BF033F87B681F
:102EB000DB697A681268104698477B68BA685A607E
:102EC0007B68FA681A607B689B68FA681344184646
:102ED0001037BD4680BD90B585B000AF7860002347
:102EE000FB607B68002B13D07B681B68002B0FD026
:102EF0007B681A687B689B681344FB607B689C68EE
:102F0000F868FDF76FF90346E2187B689A6000E005
:102F100000BF1437BD4690BD2DE9F04387B000AF28
:102F200087ED020B87ED001BB868FE6826F00041B4
:102F30003A687E6826F00043FDF7FEFD0346002B4D
:102F400004D0BC68FB6823F0004503E03C687B6864
:102F500023F00045C7E90445D7E90023D7E902017A
:102F6000FDF7A2F902460B46904623F000494FF0C8
:102F700000020C4BD7E90401FDF74EFB02460B465D
:102F800001210C4640464946FDF7C2FD0346002B91
:102F900001D100231C46E3B218461C37BD46BDE8EC
:102FA000F08300BF0000B03CF0B593B000AF786094
:102FB00039600023FB637B68D3E90623C7E90C2350
:102FC00000237B6400233B6400237B6107F118032B
:102FD00000221A605A609A60DA601A619A82FFF7DA
:102FE000E5FD034687F82F304FF000024FF0000355
:102FF000C7E902233B68002B01D100239CE0D7E9FD
:103000000C23D7E90C01FDF7A1FD0346002B21D1CC
:103010003C6B7B6B23F0004501231E464FF0FF32D3
:10302000474B20462946FDF791FD0346002B0BD167
:103030004FF0FF32424B20462946FDF769FD03461B
:10304000002B01D100231E46F3B283F00103DBB253
:10305000002B07D007F114033A4918462BF012FF52
:10306000786427E007F11400D7E90C2336492BF0E8
:1030700009FF786407F1080207F114033349184681
:103080002BF020FF0346012B0CD197ED027B97ED2F
:103090000C1BB0EE470AF0EE670AFFF73DFF034650
:1030A000002B07D107F11400D7E90C2328492BF096
:1030B000E9FE78647B6C002B02DB7B6C192B01DD55
:1030C000002339E07B6C013319463868FFF766FE50
:1030D000F863FB6B002B01D100232DE000233B6440
:1030E0001AE007F114023B6C13441B7897F82F2069
:1030F0009A4205D1FA6B3B6C13442E221A7008E0F9
:10310000FA6B3B6C134407F114013A6C0A441278D1
:103110001A703B6C01333B647B6C3A6C9A42E0D38F
:10312000FA6B3B6C134400221A703B689A687B6C04
:103130001A443B689A60012318464C37BD46F0BDDF
:10314000FFFFEF7FE4380308EC380308F438030886
:10315000F838030880B485B000AF78600023FB60C6
:103160000023BB600023BB604CE07A68BB6813445B
:103170001B782F2B0FD97A68BB6813441B78392B27
:1031800009D87A68BB6813441B781A46FB68134455
:10319000303BFB602DE07A68BB6813441B78402B02
:1031A0000FD97A68BB6813441B78462B09D87A6814
:1031B000BB6813441B781A46FB681344373BFB601B
:1031C00017E07A68BB6813441B78602B0FD97A68C4
:1031D000BB6813441B78662B09D87A68BB68134414
:1031E0001B781A46FB681344573BFB6001E0002341
:1031F0000CE0BB68022B02D8FB681B01FB60BB68BC
:103200000133BB60BB68032BAFD9FB68184614378A
:10321000BD465DF8047B704780B58AB000AFF860AA
:10322000B9607A6000237B620023FB61FB68BB61AD
:10323000002387F82330002387F82230002387F803
:103240002130002387F82030BA68BB69D31A052BD8
:1032500040F3B780BB6902331846FFF77BFFF86184
:10326000FB69B3F55C4F04D3FB69B3F5604FC0F065
:10327000AA80FB69B3F5584F37D3FB69B3F55C4FB0
:1032800033D2BB6906337B6100233B610C2387F893
:103290002130BA687B69D31A052B40F396807B698D
:1032A0001B785C2B40F093807B6901331B78752B76
:1032B00040F08D807B6902331846FFF74BFF386181
:1032C0003B69B3F55C4FC0F084803B69B3F5604F58
:1032D0007FD2FB699A02434B13403A69C2F3090259
:1032E000134303F580337B6204E0062387F8213023
:1032F000FB697B627B6A7F2B03D8012387F823302D
:103300001FE07B6AB3F5006F06D2022387F82330F3
:10331000C02387F8203014E07B6AB3F5803F06D2E3
:10332000032387F82330E02387F8203009E07B6A05
:10333000B3F5881F4FD2042387F82330F02387F892
:10334000203097F82330013B87F8223015E07B6A64
:10335000DBB203F03F03DAB27B68196897F82230DA
:103360000B4462F07F02D2B21A707B6A9B097B62C7
:1033700097F82230013B87F8223097F82230002B53
:10338000E5D197F82330012B09D97B6AD9B27B6844
:103390001B6897F820200A43D2B21A7007E07B6AB4
:1033A000DAB27B681B6802F07F02D2B21A707B68C7
:1033B0001A6897F823301A447B681A6097F821300E
:1033C0000BE000BF08E000BF06E000BF04E000BF64
:1033D00002E000BF00E000BF002318462837BD46CA
:1033E00080BD00BF00FC0F0080B58AB000AF7860E0
:1033F00039603B681A683B689B68013313447B6201
:103400003B681A683B689B68013313443B620023A6
:10341000FB600023FB613B681A683B689B681344B0
:103420001B78222B40F0028100233B610023BB610B
:1034300017E03B6A1B785C2B10D13B6A5A1C3B6837
:103440001B68D31A1A463B685B689A4280F0F0808A
:10345000BB690133BB613B6A01333B623B6A0133A9
:103460003B623B681B683A6AD31A1A463B685B6842
:103470009A4203D23B6A1B78222BDAD13B681B6845
:103480003A6AD31A1A463B685B689A4280F0D28047
:103490003B6A1B78222B40F0CD803B681A683B6862
:1034A0009B6813443A6AD31A1A46BB69D31A3B6124
:1034B0003B681B693A69013210469847F861FB691D
:1034C000002B00F0B980FB69FB6093E07B6A1B78FE
:1034D0005C2B08D07A6A531C7B62FB68591CF9602C
:1034E00012781A7086E00223FB753A6A7B6AD31A57
:1034F000002B40F3A3807B6A01331B78752B00F30C
:103500009F805C2B04DA222B5CD02F2B5AD097E0C3
:103510005C3B192B00F2948001A252F823F000BF0B
:10352000C53500084136000841360008413600081C
:103530004136000841360008893500084136000848
:10354000413600084136000895350008413600082C
:10355000413600084136000841360008413600086F
:103560004136000841360008A13500084136000800
:103570004136000841360008AD35000841360008E4
:10358000B9350008D3350008FB685A1CFA600822D8
:103590001A702BE0FB685A1CFA600C221A7025E0A6
:1035A000FB685A1CFA600A221A701FE0FB685A1C5A
:1035B000FA600D221A7019E0FB685A1CFA600922A1
:1035C0001A7013E0FB685A1CFA607A6A52781A7013
:1035D0000CE007F10C031A46396A786AFFF71CFE03
:1035E0000346FB75FB7D002B2CD000BFFB7D7A6A68
:1035F00013447B627A6A3B6A9A42FFF467AFFB68C6
:1036000000221A707B681022DA607B68FA691A61FE
:103610003B681B683A6AD31A1A463B689A603B6853
:103620009B685A1C3B689A6001231EE000BF0AE0B9
:1036300000BF08E000BF06E000BF04E000BF02E0FA
:1036400000BF00E000BFFB69002B03D03B685B6953
:10365000F86998477B6A002B06D03B681B687A6A3A
:10366000D31A1A463B689A60002318462837BD468D
:1036700080BD00BF80B588B000AF7860396000239E
:10368000FB6100233B610023BB610023FB6000233F
:103690007B613B68002B01D1002310E17B68002B8C
:1036A00011D103213868FFF779FB38613B69002BA2
:1036B00001D1002303E13B69834A11889278198084
:1036C0009A700123FBE07B68FB6123E0FB691B78B8
:1036D000222B0EDC082B12DB083B01229A407B4B8D
:1036E0001340002B14BF01230023DBB2002B02D1B7
:1036F00005E05C2B03D17B6901337B6107E0FB694B
:103700001B781F2B02D87B6905337B6100BFFB69E7
:103710000133FB61FB691B78002BD7D1FA697B6809
:10372000D31A1A467B691344FB60FB6803331946BE
:103730003868FFF733FB38613B69002B01D1002368
:10374000BDE07B69002B17D13B6922221A703B69CF
:103750000133FA68796818462AF0DCFBFB6801330C
:103760003A69134422221A70FB6802333A691344FF
:1037700000221A700123A2E03B6922221A703B69E1
:103780000133BB617B68FB6187E0FB691B781F2B02
:103790000CD9FB691B78222B08D0FB691B785C2BAA
:1037A00004D0FB691A78BB691A7070E0BB695A1CB7
:1037B000BA615C221A70FB691B78222B3EDC082B55
:1037C0005ADB083B1A2B57D801A252F823F000BF4E
:1037D000513800087138000861380008793800084D
:1037E0005938000869380008793800087938000825
:1037F00079380008793800087938000879380008E5
:1038000079380008793800087938000879380008D4
:1038100079380008793800087938000879380008C4
:1038200079380008793800087938000879380008B4
:103830007938000879380008493800085C2B1BD11A
:10384000BB695C221A7022E0BB6922221A701EE05A
:10385000BB6962221A701AE0BB6966221A7016E010
:10386000BB696E221A7012E0BB6972221A700EE0F8
:10387000BB6974221A700AE0FB691B781A46144966
:10388000B8692BF0FFFABB690433BB6100BFFB6969
:103890000133FB61BB690133BB61FB691B78002B02
:1038A0007FF473AFFB6801333A69134422221A7024
:1038B000FB6802333A69134400221A700123184648
:1038C0002037BD4680BD00BF003903083700000423
:1038D0000439030880B582B000AF786039607B6836
:1038E0001B6939681846FFF7C5FE034618460837B6
:1038F000BD4680BD80B483B000AF78607B68002B8C
:1039000003D07B681B68002B01D100232CE07B686F
:10391000002B05D07B689A687B685B689A4206D367
:103920007B6821E07B689B685A1C7B689A607B6897
:10393000002B0DD07B689A687B685B689A4207D23F
:103940007B681A687B689B6813441B78202BE9D935
:103950007B689A687B685B689A4204D17B689B6845
:103960005A1E7B689A607B6818460C37BD465DF826
:10397000047B704780B582B000AF78607B68002B15
:1039800007D07B681B68002B03D07B689B68002BEB
:1039900001D000231CE07B68002B18D07B689B685B
:1039A0001A1D7B685B689A4211D27B681A687B6833
:1039B0009B6813440322084918462BF018FB034662
:1039C000002B04D17B689B68DA1C7B689A607B685B
:1039D00018460837BD4680BD0C39030880B586B04F
:1039E00000AFF860B9607A60FB68002B01D100235A
:1039F0000CE0F868FCF7F6FB034601337B617B685B
:103A0000BA687969F86800F005F80346184618376F
:103A1000BD4680BD80B58EB000AFF860B9607A60F9
:103A20003B6007F1180300221A605A609A60DA605E
:103A30001A615A619A6100237B63414B00221A602C
:103A40003F4B00225A60FB68002B42D0BB68002B22
:103A50003FD0FB68BB61BB68FB6100233B62394A16
:103A600007F1280307CA83E807003648FFF73EF846
:103A700078637B6B002B2ED007F118031846FFF7F5
:103A800079FF03461846FFF735FF03461946786B62
:103A900000F0FCF80346002B1FD03B68002B0ED033
:103AA00007F118031846FFF725FF3A6AFB699A42A7
:103AB00015D2BA693B6A13441B78002B0FD17B687F
:103AC000002B04D0BA693B6A1A447B681A607B6B8E
:103AD00031E000BF04E000BF02E000BF00E000BF33
:103AE0007B6B002B02D0786BFFF716F8FB68002B7E
:103AF00020D0FB683B6100237B613A6AFB699A42F4
:103B000002D23B6A7B6105E0FB69002B02D0FB69B6
:103B1000013B7B617B68002B04D03A697B691A44C6
:103B20007B681A60064B1A4607F1100393E80300FE
:103B300082E80300002318463837BD4680BD00BF29
:103B4000380000201400001080B582B000AF78600B
:103B5000002200217868FFF741FF03461846083726
:103B6000BD4680BD80B58EB000AFF860B9607A60A8
:103B700000237B6307F110032422002118462AF05A
:103B8000F1F97B681B68384A12681046984703466B
:103B90003B61354B1B687B61BB687B627A6807F1D0
:103BA000280307CA83E807003B69002B40D007F1D0
:103BB00010031946F86800F055F90346002B39D078
:103BC00007F110031846FFF786F97B689B68002B06
:103BD0000DD07B689B683869BA69013211469847F5
:103BE00078637B6B002B27D000233B611EE07B6852
:103BF0001B68BA6901321046984778637B6B002BCB
:103C00001CD03969BB695A1C7B69934228BF134693
:103C10001A46786B2AF07EF9BB697A6B134400224E
:103C20001A707B685B683A69104698477B6B16E0B0
:103C300000BF04E000BF02E000BF00E000BF3B693E
:103C4000002B04D07B685B683A69104698477B6B11
:103C5000002B03D07B685B68786B9847002318467D
:103C60003837BD4680BD00BF98A4030880B582B038
:103C700000AF7860044A01217868FFF773FF0346BC
:103C800018460837BD4680BD1400001080B582B0CC
:103C900000AF786039603B68002B03D03B681B683D
:103CA000002B01D10023D2E03B68002B1DD03B68E4
:103CB0009B681A1D3B685B689A4216D83B681A6875
:103CC0003B689B6813440422634918462BF08FF924
:103CD0000346002B09D17B680422DA603B689B68AD
:103CE0001A1D3B689A600123B1E03B68002B1DD090
:103CF0003B689B685A1D3B685B689A4216D83B68D4
:103D00001A683B689B6813440522544918462BF0F7
:103D10006EF90346002B09D17B680122DA603B680B
:103D20009B685A1D3B689A60012390E03B68002B1A
:103D300020D03B689B681A1D3B685B689A4219D883
:103D40003B681A683B689B68134404224449184640
:103D50002BF04DF90346002B0CD17B680222DA6070
:103D60007B6801225A613B689B681A1D3B689A6018
:103D700001236CE03B68002B13D03B689A683B68DA
:103D80005B689A420DD23B681A683B689B68134493
:103D90001B78222B05D139687868FFF725FB03468D
:103DA00055E03B68002B23D03B689A683B685B6812
:103DB0009A421DD23B681A683B689B6813441B7883
:103DC0002D2B0FD03B681A683B689B6813441B7807
:103DD0002F2B0DD93B681A683B689B6813441B78EE
:103DE000392B05D839687868FEF7EAFE03462EE0DD
:103DF0003B68002B13D03B689A683B685B689A422B
:103E00000DD23B681A683B689B6813441B785B2B98
:103E100005D13968786800F009F9034617E03B6876
:103E2000002B13D03B689A683B685B689A420DD2BE
:103E30003B681A683B689B6813441B787B2B05D151
:103E40003968786800F03CFA034600E00023184621
:103E50000837BD4680BD00BFE438030810390308A9
:103E60001839030880B584B000AF7860396000234A
:103E7000FB607B68002B02D03B68002B01D1002344
:103E8000C9E07B68DB68DBB2802B00F08E80802B82
:103E900000F3C080202B49DC002B40F3BB80013BAA
:103EA0001F2B00F2B78001A252F823F0573F000801
:103EB0007B3F000815400008333F0008154000080C
:103EC00015400008154000089F3F000815400008F5
:103ED000154000081540000815400008154000086E
:103EE0001540000815400008F13F00081540000883
:103EF000154000081540000815400008154000084E
:103F0000154000081540000815400008154000083D
:103F1000154000081540000815400008154000082D
:103F20001540000815400008FD3F0008402B6BD0ED
:103F300070E005213868FEF731FFF860FB68002B60
:103F400001D1002367E0FB68354A106818601279D8
:103F50001A7101235FE006213868FEF71FFFF86041
:103F6000FB68002B01D1002355E0FB682D4A106847
:103F7000186092889A8001234DE005213868FEF789
:103F80000DFFF860FB68002B01D1002343E0FB68C4
:103F9000254A1068186012791A7101233BE03968CC
:103FA0007868FFF701F8034635E00023BB607B68C3
:103FB0001B69002B01D100232DE07B681B6918468B
:103FC000FCF710F903460133BB60B9683868FEF7A7
:103FD000E5FEF860FB68002B01D100231BE07B6845
:103FE0001B69BA681946F86829F094FF012312E0AA
:103FF00039687868FFF76EFC03460CE0396878682A
:1040000000F0D8F8034606E03968786800F057FAFF
:10401000034600E0002318461037BD4680BD00BFB0
:10402000E4380308103903081839030880B586B04E
:1040300000AF7860396000237B6100233B613B68FF
:10404000DB68B3F57A7F01D30023AFE03B68DB6820
:104050005A1C3B68DA603B681A683B689B681344EB
:104060001B785B2B40F094803B689B685A1C3B6834
:104070009A603868FFF73EFC3B68002B0DD03B6828
:104080009A683B685B689A4207D23B681A683B684B
:104090009B6813441B785D2B61D03B68002B05D0D7
:1040A0003B689A683B685B689A4205D33B689B68AB
:1040B0005A1E3B689A6072E03B689B685A1E3B68D8
:1040C0009A603B6810331846FEF710FDF860FB68F5
:1040D000002B5FD07B69002B04D1FB687B617B697F
:1040E0003B6107E03B69FA681A60FB683A695A600D
:1040F000FB683B613B689B685A1C3B689A60386868
:10410000FFF7F8FB39683869FFF7C0FD0346002B5D
:1041100042D03868FFF7EEFB3B68002B0DD03B68C0
:104120009A683B685B689A4207D23B681A683B68AA
:104130009B6813441B782C2BC3D03B68002B2DD0DD
:104140003B689A683B685B689A4227D23B681A686A
:104150003B689B6813441B785D2B1FD100E000BFB8
:104160003B68DB685A1E3B68DA607B69002B02D033
:104170007B693A695A607B682022DA607B687A69D9
:104180009A603B689B685A1C3B689A6001230DE06B
:1041900000BF04E000BF02E000BF00E000BF7B6999
:1041A000002B02D07869FEF7B7FC002318461837B9
:1041B000BD4680BD80B586B000AF78603960002311
:1041C0007B610023FB607B689B683B613B68002B45
:1041D00001D1002370E001213868FEF7DFFD78612E
:1041E0007B69002B01D1002366E07B695B221A709A
:1041F0003B689B685A1C3B689A603B68DB685A1CAA
:104200003B68DA603DE039683869FFF72BFE03460A
:10421000002B01D100234FE03868FEF75CFE3B69BC
:104220001B68002B2AD03B685B69002B01D002235E
:1042300000E00123FB60FB68013319463868FEF794
:10424000ADFD78617B69002B01D1002334E07B69EF
:104250005A1C7A612C221A703B685B69002B04D0CF
:104260007B695A1C7A6120221A707B6900221A70BD
:104270003B689A68FB681A443B689A603B691B6814
:104280003B613B69002BBED102213868FEF786FDF9
:1042900078617B69002B01D100230DE07B695A1CFA
:1042A0007A615D221A707B6900221A703B68DB68B4
:1042B0005A1E3B68DA60012318461837BD4680BD98
:1042C00080B586B000AF7860396000237B61002341
:1042D0003B613B68DB68B3F57A7F01D30023EAE0FA
:1042E0003B68DB685A1C3B68DA603B68002B00F0D7
:1042F000D0803B689A683B685B689A4280F0C980CE
:104300003B681A683B689B6813441B787B2B40F022
:10431000C0803B689B685A1C3B689A603868FFF70E
:10432000E9FA3B68002B0ED03B689A683B685B68F3
:104330009A4208D23B681A683B689B6813441B7812
:104340007D2B00F08D803B68002B05D03B689A6880
:104350003B685B689A4205D33B689B685A1E3B6882
:104360009A60A1E03B689B685A1E3B689A603B6874
:1043700010331846FEF7BAFBF860FB68002B00F01C
:104380008A807B69002B04D1FB687B617B693B6180
:1043900007E03B69FA681A60FB683A695A60FB6893
:1043A0003B613B689B685A1C3B689A603868FFF722
:1043B000A1FA39683869FFF717F80346002B6CD06B
:1043C0003868FFF797FA3B691A693B691A623B69DB
:1043D00000221A613B68002B61D03B689A683B68F9
:1043E0005B689A425BD23B681A683B689B681344DF
:1043F0001B783A2B53D13B689B685A1C3B689A60E8
:104400003868FFF777FA39683869FFF73FFC0346E9
:10441000002B46D03868FFF76DFA3B68002B0DD0B3
:104420003B689A683B685B689A4207D23B681A68A7
:104430003B689B6813441B782C2B98D03B68002B5F
:1044400031D03B689A683B685B689A422BD23B68E4
:104450001A683B689B6813441B787D2B23D100E0CE
:1044600000BF3B68DB685A1E3B68DA607B69002B43
:1044700002D07B693A695A607B684022DA607B68C7
:104480007A699A603B689B685A1C3B689A60012372
:1044900011E000BF08E000BF06E000BF04E000BF7D
:1044A00002E000BF00E000BF7B69002B02D078690A
:1044B000FEF732FB002318461837BD4680BD80B595
:1044C00088B000AF786039600023FB610023FB6097
:1044D0007B689B68BB613B68002B01D1002308E12E
:1044E0003B685B69002B01D0022300E00123FB60E5
:1044F000FB68013319463868FEF750FCF861FB6928
:10450000002B01D10023F4E0FB695A1CFA617B22E5
:104510001A703B68DB685A1C3B68DA603B685B6971
:10452000002B04D0FB695A1CFA610A221A703B68FE
:104530009A68FB681A443B689A60A0E03B685B6934
:10454000002B22D03B68DB6819463868FEF726FC52
:10455000F861FB69002B01D10023CAE000237B61D5
:1045600007E0FB695A1CFA6109221A707B69013362
:104570007B613B68DB687A699A42F2D33B689A6850
:104580003B68DB681A443B689A60BB691B6A396800
:104590001846FFF76FF80346002B01D10023A8E06F
:1045A0003868FEF798FC3B685B69002B01D002235A
:1045B00000E00123FB60F9683868FEF7EFFBF86163
:1045C000FB69002B01D1002393E0FB695A1CFA61BF
:1045D0003A221A703B685B69002B04D0FB695A1CB5
:1045E000FA6109221A703B689A68FB681A443B68B2
:1045F0009A603968B869FFF735FC0346002B01D192
:10460000002376E03868FEF766FC3B685B69002BA8
:1046100001D0012200E00022BB691B68002B01D001
:10462000012300E000231344FB60FB6801331946BB
:104630003868FEF7B3FBF861FB69002B01D100235A
:1046400057E0BB691B68002B04D0FB695A1CFA6158
:104650002C221A703B685B69002B04D0FB695A1C42
:10466000FA610A221A70FB6900221A703B689A6884
:10467000FB681A443B689A60BB691B68BB61BB69F5
:10468000002B7FF45BAF3B685B69002B03D03B687A
:10469000DB68013300E0022319463868FEF77EFB31
:1046A000F861FB69002B01D1002322E03B685B69C4
:1046B000002B10D000233B6107E0FB695A1CFA6114
:1046C00009221A703B6901333B613B68DB68013B9F
:1046D0003A699A42F1D3FB695A1CFA617D221A7039
:1046E000FB6900221A703B68DB685A1E3B68DA607F
:1046F000012318462037BD4680BD80B485B000AF89
:1047000078600023FB600023BB607B68002B01D135
:1047100000230DE07B689B68FB6005E0BB6801330C
:10472000BB60FB681B68FB60FB68002BF6D1BB68B5
:1047300018461437BD465DF8047B704780B485B0D9
:1047400000AF786039600023FB607B68002B01D1EB
:10475000002310E07B689B68FB6005E03B68013B41
:104760003B60FB681B68FB60FB68002B02D03B686A
:10477000002BF3D1FB6818461437BD465DF8047B67
:10478000704780B582B000AF786039603B68002B1D
:1047900001DA002305E03B6819467868FFF7CEFF91
:1047A000034618460837BD4680BD80B586B000AFC9
:1047B000F860B9607A6000237B61FB68002B02D04F
:1047C000BB68002B01D1002333E0FB689B687B6151
:1047D0007B68002B17D002E07B691B687B617B69DB
:1047E000002B1CD07B691B6A002B18D07B691B6ACD
:1047F0001946B868FBF7ECFC0346002BECD10EE041
:104800007B691B687B617B69002B08D07B691B6A15
:104810001946B868FEF7D6F80346002BF0D17B693D
:10482000002B03D07B691B6A002B01D1002300E021
:104830007B6918461837BD4680BD80B582B000AF91
:1048400078603960002239687868FFF7AEFF034668
:1048500018460837BD4680BD80B483B000AF78608D
:1048600039607B683A681A603B687A685A6000BFB2
:104870000C37BD465DF8047B704780B584B000AF4F
:10488000786039600023FB603B68002B06D07B68B2
:10489000002B03D07A683B689A4201D100231EE0C6
:1048A0007B689B68FB60FB68002B09D17B683A68DA
:1048B0009A603B683A685A603B6800221A600DE0D3
:1048C000FB685B68002B09D0FB685B683968184699
:1048D000FFF7C2FF7B689B683A685A60012318465D
:1048E0001037BD4680BD80B483B000AF78607B6870
:1048F00018460C37BD465DF8047B704780B586B01E
:1049000000AFF860B9607A603B6000237B610023F0
:104910003B61FB68002B09D0BB68002B06D07B688D
:10492000002B03D0FA687B689A4201D1002336E05D
:104930003B6A002B09D0B868FFF7D5FF78617B6828
:10494000DB6843F400733B610EE03968B868FEF73A
:10495000A5F878617B69002B01D100231FE07B68FB
:10496000DB6823F400733B617B68DB6803F400734E
:10497000002B09D17B681B6A002B05D03B685B6864
:104980007A68126A104698477B687A691A627B686F
:104990003A69DA607968F868FFF76FFF03461846EE
:1049A0001837BD4680BD000080B586B002AFF86004
:1049B000B9607A6000230093054B7A68B968F8689B
:1049C000FFF79CFF034618461037BD4680BD00BF69
:1049D0001400001080B588B002AFF860B96087EDB0
:1049E000000B97ED000B00F03BF87861002300937B
:1049F000094B7A69B968F868FFF780FF0346002B16
:104A000001D07B6903E07869FEF786F80023184639
:104A10001837BD4680BD00BF1400001080B588B0B7
:104A200002AFF860B9607A60786800F061F8786188
:104A300000230093094B7A69B968F868FFF75EFFB5
:104A40000346002B01D07B6903E07869FEF764F828
:104A5000002318461837BD4680BD00BF1400001063
:104A600080B584B000AF87ED000B1F48FEF73EF81D
:104A7000F860FB68002B2CD0FB680822DA60F9682C
:104A8000D7E90023C1E9062315A3D3E90023D7E919
:104A90000001FCF747F80346002B04D0FB686FF0D9
:104AA00000425A6115E04FF00002104BD7E90001B7
:104AB000FCF72EF80346002B04D0FB684FF00042B1
:104AC0005A6106E0D7E90001FCF756F80246FB6898
:104AD0005A61FB6818461037BD4680BDAFF30080B1
:104AE0000000C0FFFFFFDF41140000100000E0C124
:104AF00080B584B000AF78600F48FDF7F7FFF8602D
:104B0000FB68002B12D0FB681022DA600A49786833
:104B1000FDF7C4FF0246FB681A61FB681B69002BA6
:104B200004D1F868FDF7F8FF002300E0FB681846A1
:104B30001037BD4680BD00BF1400001080B582B0A4
:104B400000AF0748FDF7D2FF78607B68002B02D0EA
:104B50007B684022DA607B6818460837BD4680BD16
:104B60001400001080B582B000AF7860034B5B6822
:104B70007868984700BF0837BD4680BD1400001014
:104B800080B586B000AFF860B9607A60B968F8683F
:104B9000FFF753FE78617B69002B0CD07B695A6963
:104BA0007B681A607B695B691A46B96804482AF019
:104BB00085F8012300E0002318461837BD4680BD64
:104BC0002039030880B586B000AFF860B9607A601C
:104BD000B968F868FFF731FE78617B69002B0DD06A
:104BE0007B695B69DAB27B681A707B695B691A461C
:104BF000B96805482AF062F8012300E0002318464E
:104C00001837BD4680BD00BF2039030880B586B087
:104C100000AFF860B9607A60B968F868FFF70DFE18
:104C200078617B69002B37D07B691B691D49184669
:104C3000FBF7CEFA0346002B02D17B6800221A70E4
:104C40007B691B6918491846FBF7C2FA0346002B1B
:104C500002D17B6801221A707B691B6913491846CF
:104C6000FBF7B6FA0346002B0DD1114B1B689B7A5C
:104C7000022B05D00E4B1A680D4B1B68927ADA7224
:104C80007B6802221A707B691B691A46B968094859
:104C90002AF014F8012300E0002318461837BD4617
:104CA00080BD00BF3C390308443903084C39030870
:104CB0001C4201205839030880B586B000AFF86067
:104CC000B9607A60B968F868FFF7B7FD78617B6909
:104CD000002B20D07B691B6911491846FBF778FA35
:104CE0000346002B02D17B6801221A707B691B6985
:104CF0000C491846FBF76CFA0346002B02D17B687F
:104D000000221A707B691B691A46B968064829F0A7
:104D1000D5FF012300E0002318461837BD4680BDAB
:104D200074390308783903085839030880B586B008
:104D300000AFF860B9607A60B968F868FFF77DFD88
:104D400078617B69002B0ED07B69D3E906237968F3
:104D5000C1E900237B69D3E90623B968044829F037
:104D6000ADFF012300E0002318461837BD4680BD83
:104D70007C39030880B586B000AFF860B9607A600E
:104D8000B968F868FFF759FD78617B69002B0ED090
:104D90007B691B69194678682AF021F97B691B69D0
:104DA0001A46B968044829F089FF012300E000236E
:104DB00018461837BD4680BD5839030880B586B0FF
:104DC00000AFF860B9607A603B60FB68002B40F090
:104DD000E88000237B61DFE07B699B007A681344F5
:104DE0001B6874491846FBF7F3F90346002B13D1EF
:104DF0001E220021704829F0B5F87B699B003A68B3
:104E000013441B6819466C482AF0E9F86B4B1B6881
:104E1000002283F8DC20BCE07B699B007A681344A5
:104E20001B6867491846FBF7D3F90346002B14D1DA
:104E3000624B1B683C3310220021184629F092F87F
:104E40005E4B1B6803F13C007B699B003A6813448E
:104E50001B6819462AF0C3F89BE07B699B007A68BF
:104E600013441B6857491846FBF7B2F90346002B59
:104E70000ED17B699B003A6813441B68184628F0E2
:104E8000EFFF02464D4B1B6892B2A3F8502080E022
:104E90007B699B007A6813441B684B491846FBF7F3
:104EA00097F90346002B12D1444B1B680C220021BA
:104EB000184629F057F8414B1B6818467B699B0040
:104EC0003A6813441B6819462AF089F861E07B6947
:104ED0009B007A6813441B683C491846FBF778F935
:104EE0000346002B14D1354B1B6814330C220021D0
:104EF000184629F037F8314B1B6803F114007B6921
:104F00009B003A6813441B6819462AF068F840E091
:104F10007B699B007A6813441B682D491846FBF790
:104F200057F90346002B14D1244B1B6828330C225D
:104F30000021184629F016F8204B1B6803F12800C1
:104F40007B699B003A6813441B6819462AF047F8AE
:104F50001FE07B699B007A6813441B681D49184653
:104F6000FBF736F90346002B13D1144B1B68523361
:104F70000C220021184628F0F5FF104B1B6803F1A6
:104F800052007B699B003A6813441B6819462AF05B
:104F900026F87B6901337B617A69BB689A42FFF628
:104FA0001BAF04F02BFF02F00BFA0B4B184618371F
:104FB000BD4680BDB4390308A4450120204201202C
:104FC000C0390308C8390308D4390308E039030895
:104FD000F0390308F8390308043A030880B586B0AD
:104FE00000AFF860B9607A603B60FB68012B45D187
:104FF00000237B613EE07B699B007A6813441B6859
:1050000021491846FBF7E4F80346002B0ED11E2277
:1050100000211E4828F0A6FF7B699B003A681344D4
:105020001B681946194829F0DAFF20E07B699B00CC
:105030007A6813441B6816491846FBF7C9F80346FB
:10504000002B14D11148FBF7CDF803461A460F4B3D
:10505000134410491A460B461B8813807B699B003A
:105060003A6813441B681946084829F09CFF7B697D
:1050700001337B617A69BB689A42BCDB064B1846F8
:105080001837BD4680BD00BF143A0308A44501206F
:105090001C3A0308243A0308283A030880B500AFF5
:1050A00015F0DCFA094B0A4A92E8030083E8030092
:1050B000064B084A083392E8030083E80300022104
:1050C000024815F0EBFA00BF80BD00BFC4450120C7
:1050D0009CA40308A4A4030880B588B000AF78603E
:1050E0004FF0FF33FB611449786829F0A7FF78611E
:1050F0007B69002B1BD07B6910337B610023BB6174
:1051000002E0BB690133BB61BB697A6913441B7858
:105110000D2BF6D1BA6907F10C037969184629F00D
:105120007AFF07F10C03184628F09AFEF861FB6934
:1051300018462037BD4680BD383A03082DE9F041B6
:10514000C4B008AFF860F868FEF7FEFCC7F8EC00E2
:1051500007E00A2010F0ECFAF868FEF7F5FCC7F853
:10516000EC00D7F8EC30002BF3D0A449D7F8EC00D2
:10517000FFF763FB0346002B66D0A049D7F8EC008D
:10518000FFF75BFB03461B6919469D4829F096FD16
:105190009A49D7F8EC00FFF750FB03461A6907F16C
:1051A00014039849184629F06DFE974B1B6803F1CC
:1051B00066003B7D9E467B7D98463B7EBB60BA7E0B
:1051C000F97E3C7FFD7FBE7F97F827C0C7F804C0FB
:1051D00097F826C0634607937B6806930596049567
:1051E000039402910192BB6800934346724687493B
:1051F00029F048FE844B1B6803F17A00FB7D9E4634
:105200007B7E98467B7FBB6097F8212097F8201023
:1052100097F8224097F8235097F8246097F816C023
:10522000C7F804C097F825C0634607937B680693C8
:1052300005960495039402910192BB68009343463E
:105240007246724929F01EFE7149D7F8EC00FFF74B
:10525000F4FA0346002B20D06D49D7F8EC00FFF795
:10526000ECFA03465B6919466A4829F027FD68494C
:10527000D7F8EC00FFF7E1FA03465A6907F1CC03CF
:105280006549184629F0FEFD5F4B1B68D43307F1D2
:10529000CC021146184629F0A2FE6049D7F8EC006E
:1052A000FFF7CBFA0346002B20D05C49D7F8EC007F
:1052B000FFF7C3FA03465B691946594829F0FEFC1B
:1052C0005649D7F8EC00FFF7B8FA03465A6907F1D8
:1052D000AC035149184629F0D5FD4B4B1B68CC3324
:1052E00007F1AC021146184629F079FE4D49D7F86E
:1052F000EC00FFF7A2FA0346002B20D04949D7F86B
:10530000EC00FFF79AFA03461B691946464829F054
:10531000D5FC4449D7F8EC00FFF78FFA03461A6929
:1053200007F114033749184629F0ACFD364B1B68CA
:10533000A23307F114021146184629F050FE3B49EA
:10534000D7F8EC00FFF779FA0346002B15D0374960
:10535000D7F8EC00FFF771FA03461A6907F1140356
:105360002849184629F08EFD274B1B68DE3307F1CC
:1053700014021146184629F032FE2D49D7F8EC00E8
:10538000FFF75BFA0346002B20D02949D7F8EC0041
:10539000FFF753FA03461B691946264829F08EFC8D
:1053A0002349D7F8EC00FFF748FA03461A6907F1DA
:1053B00014031449184629F065FD134B1B68F2339A
:1053C00007F114021146184629F009FE0E4B1B681E
:1053D000012283F8DC20184B1B68184619F014FED4
:1053E00002F026F904F00AFDD7F8EC00FDF794FB73
:1053F00000231846F037BD46BDE8F0814C3A03085B
:10540000543A0308683A0308204201206C3A030822
:10541000843A03088C3A0308A43A0308A83A03081C
:10542000B43A0308CC3A0308D43A0308EC3A030828
:10543000F83A0308003B03086846012080B58CB0A9
:1054400000AFF860B9607A603B60BB6BFB622C49CF
:10545000F86829F0F3FD78627B6A04337B627A6A2C
:10546000FB68D31ABA68D31A3B62BB6B0133184688
:1054700028F030FD0346FB613B6A1A46796AF869F9
:1054800029F0C9FDFA6A3B6AD31AFB623B6AFA69E2
:105490001344BB6220E03B68184614F01DF83B46FD
:1054A0001946786812F09EFA3B6807F1160207F178
:1054B0001801184614F030F8BB69FA8A1946B86A20
:1054C00029F0A9FDFB8A1A46BB6A1344BB62FB8A1A
:1054D0001A46FB6A9B1AFB62FB6A002BDBD1BB6B93
:1054E000FA69134400221A70F969064829F0E6FBAC
:1054F000F869FFF723FEFB6918463037BD4680BDCB
:10550000183B0308203B0308F0B59DB004AF78605A
:1055100007F148031946786812F064FA034687F8E1
:105520005F3097F95F30002B40F0D181786812F03E
:10553000E2FB0346002B40F0CA81BB6C07F142023C
:1055400007F14401184613F0E7FF7B6C0F22B949BD
:10555000184629F04CFD0346002B14D107F12C030B
:10556000B549184614F0DAF9F96A3B6B1A4600237C
:1055700000930023786812F0AFFA07F12C03184665
:1055800014F00AFAA3E17B6C0A22AC49184629F010
:105590002EFD0346002B40F0A9807B6C1846FFF7D8
:1055A0009BFD03461A46A64B1A60A54B1B6819467D
:1055B000A44829F083FB03F09BF80023FB6497F9D0
:1055C0005F30002B14D1BB6C184613F085FF07F138
:1055D00048031946786812F005FA034687F85F30E9
:1055E000BB6C07F1420207F14401184613F094FF27
:1055F00097F95F30002B60D1BB6C184613F06CFF3D
:1056000007F148031946786812F0ECF9034687F869
:105610005F30BB6C07F1420207F14401184613F0FA
:105620007BFF7B6CB7F842201946874828F072FC54
:105630008649854829F002FDF8648549F86C29F00F
:10564000FDFCF864FB6C0433FB64B7F84220FB6C90
:105650007D495B1A9BB2D31A9BB2A7F84230B7F8C8
:1056600042301946F86C03F085F826E0BB6C18460A
:1056700013F032FF07F148031946786812F0B2F9C7
:10568000034687F85F30BB6C07F1420207F1440123
:10569000184613F041FF7B6CB7F8422019466A4860
:1056A00028F038FCB7F842301946674803F062F832
:1056B000B7F84230B3F5067F04D397F95F30002B7B
:1056C000D4D000E000BF0023009300232D226149C5
:1056D000786812F001FA5A4B1B685F4A136004F0B5
:1056E00059FB4FF0006003F01BF8F0E07B6C1022D8
:1056F0005A49184629F07BFC0346002B25D1B7F800
:10570000423019467B6C1A46554829F0D7FA7C6C12
:10571000B7F842301E46BD6C7B6C1846FFF7DCFCC8
:10572000034600932B467A6831462046FFF786FEF3
:105730003865386D28F0D6FB002300930023332210
:105740004849786812F0C8F9C1E07B6C08224649E4
:10575000184629F04CFC0346002B40F08D800023B6
:10576000FB6007F1100300221A605A609A60DA6049
:105770001A615A611A833D4B93F83A301D463B4BF0
:1057800093F83B301E46394B93F83C301A46374B62
:1057900093F83D301946354B93F83E301C46334B59
:1057A00093F83F3007F10C000393029401910092AB
:1057B00033462A462E4929F065FBFFF7BFF9B86545
:1057C00005E00A200FF0B4FFFFF7B8F9B865BB6D2C
:1057D000002BF6D007F10C031A462649B86DFFF7E7
:1057E0001DF9B86DFEF742FA786506E00A200FF061
:1057F0009FFFB86DFEF73AFA78657B6D002BF5D008
:1058000000230093002333221649786812F064F9CC
:10581000786DFAF7E7FC0246002300930023796DC8
:10582000786812F059F9B86DFDF776F9786DFFF7E1
:1058300099F94CE0383B0308483B0308543B030804
:1058400080420120603B030840000020803B0308A9
:10585000183B03085400001018420120903B030835
:10586000A43B030820000010C03B0308584D012052
:10587000CC3B0308E03B03087B6C0C22194918461B
:1058800029F0B5FB0346002B21D100230093002310
:1058900033221549786812F01FF9144B93F8413000
:1058A0009B0803F00103DBB2002B08D00023009318
:1058B000002306220E49786812F00EF907E0002353
:1058C0000093002310220B49786812F005F97868DC
:1058D00012F004FABB6C184613F0FEFD00BF6437EB
:1058E000BD46F0BDE43B030820000010584D0120E8
:1058F000F43B0308FC3B030880B586B000AF78603A
:1059000000220021102011F047FD78617B69002BF7
:1059100023D050221349786911F0F8FD0346FB7437
:1059200097F91330002B18D1FF21786911F026FE6A
:1059300007F10C031946786911F04CFE0346BB745D
:1059400097F91230002BF3D1FB681846FFF7DCFD06
:10595000FB68184611F0BEFDEAE700BF1837BD46E8
:1059600080BD00BF700F040880B582B002AF012176
:105970000A4808F023FE0346012B09D100230093B7
:105980004FF4806300220649064828F025FA01E01A
:10599000FFF784FB00BFBD4680BD00BF0010024082
:1059A000F9580008103C03082DE9B04F8AB000AF49
:1059B000A24B1B685B79002B20D006F093FA0346BC
:1059C00000229A4693469E4BD3E90023BAEB020489
:1059D0006BEB03059B4B9C4275F100030ED306F065
:1059E00081FA034600223B627A62954BD7E908129E
:1059F000C3E90012914B1B6800225A718F4B1B6840
:105A00005B7983F00103DBB2002B00F0118106F01B
:105A100069FA03460022BB61FA61894BD3E900238E
:105A2000D7E906452146B1EB0208294661EB030997
:105A3000824B1B6893F8AB301A464EF6602302FB8C
:105A400003F3DA173B617A61D7E904120B46434549
:105A5000134673EB090380F0EB8006F043FA03462C
:105A60000022BB60FA60764BD7E90212C3E900124C
:105A7000754829F0A9F9714B1B685B78002B00F081
:105A80009B80724B1B78022B40F09680704B1B68FA
:105A90001B7A002B00F090806D4B1B685B7A002B0B
:105AA00000F08A806B4B1B7883F00103DBB2002B84
:105AB00000F08280614B1B681B7B002B7CD0664B07
:105AC0001B781A465D4B1B6893F8A73019465B4B51
:105AD0001B6893F8AA30CB1A9A426DDA574B1B68B1
